{
  "_format": "hh-sol-artifact-1",
  "contractName": "Market",
  "sourceName": "contracts/Market.sol",
  "abi": [
    {
      "inputs": [
        {
          "internalType": "uint256",
          "name": "_feePercent",
          "type": "uint256"
        }
      ],
      "stateMutability": "nonpayable",
      "type": "constructor"
    },
    {
      "anonymous": false,
      "inputs": [
        {
          "indexed": false,
          "internalType": "uint256",
          "name": "id",
          "type": "uint256"
        },
        {
          "indexed": false,
          "internalType": "contract IERC721",
          "name": "nft",
          "type": "address"
        },
        {
          "indexed": false,
          "internalType": "uint256",
          "name": "tokenID",
          "type": "uint256"
        },
        {
          "indexed": false,
          "internalType": "uint256",
          "name": "price",
          "type": "uint256"
        },
        {
          "indexed": true,
          "internalType": "address",
          "name": "seller",
          "type": "address"
        },
        {
          "indexed": true,
          "internalType": "address",
          "name": "buyer",
          "type": "address"
        }
      ],
      "name": "Bought",
      "type": "event"
    },
    {
      "anonymous": false,
      "inputs": [
        {
          "indexed": false,
          "internalType": "uint256",
          "name": "id",
          "type": "uint256"
        },
        {
          "indexed": false,
          "internalType": "contract IERC721",
          "name": "nft",
          "type": "address"
        },
        {
          "indexed": false,
          "internalType": "uint256",
          "name": "tokenID",
          "type": "uint256"
        },
        {
          "indexed": false,
          "internalType": "uint256",
          "name": "price",
          "type": "uint256"
        },
        {
          "indexed": false,
          "internalType": "address payable",
          "name": "seller",
          "type": "address"
        },
        {
          "indexed": false,
          "internalType": "bool",
          "name": "sold",
          "type": "bool"
        }
      ],
      "name": "Offered",
      "type": "event"
    },
    {
      "inputs": [],
      "name": "feeAccount",
      "outputs": [
        {
          "internalType": "address payable",
          "name": "",
          "type": "address"
        }
      ],
      "stateMutability": "view",
      "type": "function"
    },
    {
      "inputs": [],
      "name": "feePercent",
      "outputs": [
        {
          "internalType": "uint256",
          "name": "",
          "type": "uint256"
        }
      ],
      "stateMutability": "view",
      "type": "function"
    },
    {
      "inputs": [
        {
          "internalType": "uint256",
          "name": "_id",
          "type": "uint256"
        }
      ],
      "name": "getTotalPrice",
      "outputs": [
        {
          "internalType": "uint256",
          "name": "",
          "type": "uint256"
        }
      ],
      "stateMutability": "view",
      "type": "function"
    },
    {
      "inputs": [],
      "name": "itemCount",
      "outputs": [
        {
          "internalType": "uint256",
          "name": "",
          "type": "uint256"
        }
      ],
      "stateMutability": "view",
      "type": "function"
    },
    {
      "inputs": [
        {
          "internalType": "uint256",
          "name": "",
          "type": "uint256"
        }
      ],
      "name": "items",
      "outputs": [
        {
          "internalType": "uint256",
          "name": "id",
          "type": "uint256"
        },
        {
          "internalType": "contract IERC721",
          "name": "nft",
          "type": "address"
        },
        {
          "internalType": "uint256",
          "name": "tokenID",
          "type": "uint256"
        },
        {
          "internalType": "uint256",
          "name": "price",
          "type": "uint256"
        },
        {
          "internalType": "address payable",
          "name": "seller",
          "type": "address"
        },
        {
          "internalType": "bool",
          "name": "sold",
          "type": "bool"
        },
        {
          "internalType": "string",
          "name": "sellerName",
          "type": "string"
        }
      ],
      "stateMutability": "view",
      "type": "function"
    },
    {
      "inputs": [
        {
          "internalType": "contract ERC721",
          "name": "_nft",
          "type": "address"
        },
        {
          "internalType": "uint256",
          "name": "tokenID",
          "type": "uint256"
        },
        {
          "internalType": "uint256",
          "name": "price",
          "type": "uint256"
        },
        {
          "internalType": "string",
          "name": "_sellerName",
          "type": "string"
        }
      ],
      "name": "makeItem",
      "outputs": [],
      "stateMutability": "nonpayable",
      "type": "function"
    },
    {
      "inputs": [
        {
          "internalType": "uint256",
          "name": "_id",
          "type": "uint256"
        }
      ],
      "name": "purchaseItem",
      "outputs": [],
      "stateMutability": "payable",
      "type": "function"
    }
  ],
  "bytecode": "0x60c06040523480156200001157600080fd5b506040516200171a3803806200171a8339818101604052810190620000379190620000c2565b60016000819055503373ffffffffffffffffffffffffffffffffffffffff1660808173ffffffffffffffffffffffffffffffffffffffff16815250508060a0818152505050620000f4565b600080fd5b6000819050919050565b6200009c8162000087565b8114620000a857600080fd5b50565b600081519050620000bc8162000091565b92915050565b600060208284031215620000db57620000da62000082565b5b6000620000eb84828501620000ab565b91505092915050565b60805160a0516115f262000128600039600081816101e7015261032d0152600081816101bd01526104e701526115f26000f3fe6080604052600436106100705760003560e01c8063bfb231d21161004e578063bfb231d2146100f6578063ca7dd37514610139578063d38ea5bf14610176578063e40084371461019257610070565b806365e17c9d146100755780636bfb0d01146100a05780637fd6f15c146100cb575b600080fd5b34801561008157600080fd5b5061008a6101bb565b6040516100979190610a66565b60405180910390f35b3480156100ac57600080fd5b506100b56101df565b6040516100c29190610a9a565b60405180910390f35b3480156100d757600080fd5b506100e06101e5565b6040516100ed9190610a9a565b60405180910390f35b34801561010257600080fd5b5061011d60048036038101906101189190610af5565b610209565b6040516101309796959493929190610c2c565b60405180910390f35b34801561014557600080fd5b50610160600480360381019061015b9190610af5565b610320565b60405161016d9190610a9a565b60405180910390f35b610190600480360381019061018b9190610af5565b6103a7565b005b34801561019e57600080fd5b506101b960048036038101906101b49190610e27565b61071e565b005b7f000000000000000000000000000000000000000000000000000000000000000081565b60015481565b7f000000000000000000000000000000000000000000000000000000000000000081565b60026020528060005260406000206000915090508060000154908060010160009054906101000a900473ffffffffffffffffffffffffffffffffffffffff16908060020154908060030154908060040160009054906101000a900473ffffffffffffffffffffffffffffffffffffffff16908060040160149054906101000a900460ff169080600501805461029d90610ed9565b80601f01602080910402602001604051908101604052809291908181526020018280546102c990610ed9565b80156103165780601f106102eb57610100808354040283529160200191610316565b820191906000526020600020905b8154815290600101906020018083116102f957829003601f168201915b5050505050905087565b600061037f6127106103717f000000000000000000000000000000000000000000000000000000000000000060026000878152602001908152602001600020600301546109a090919063ffffffff16565b6109b690919063ffffffff16565b60026000848152602001908152602001600020600301546103a09190610f39565b9050919050565b6103af6109cc565b60006103ba82610320565b905060006002600084815260200190815260200160002090506000831180156103e557506001548311155b610424576040517f08c379a000000000000000000000000000000000000000000000000000000000815260040161041b90610fb9565b60405180910390fd5b8060040160149054906101000a900460ff1615610476576040517f08c379a000000000000000000000000000000000000000000000000000000000815260040161046d90611025565b60405180910390fd5b8060040160009054906101000a900473ffffffffffffffffffffffffffffffffffffffff1673ffffffffffffffffffffffffffffffffffffffff166108fc82600301549081150290604051600060405180830381858888f193505050501580156104e4573d6000803e3d6000fd5b507f000000000000000000000000000000000000000000000000000000000000000073ffffffffffffffffffffffffffffffffffffffff166108fc82600301548461052f9190611045565b9081150290604051600060405180830381858888f1935050505015801561055a573d6000803e3d6000fd5b5060018160040160146101000a81548160ff021916908315150217905550338160040160006101000a81548173ffffffffffffffffffffffffffffffffffffffff021916908373ffffffffffffffffffffffffffffffffffffffff1602179055508060010160009054906101000a900473ffffffffffffffffffffffffffffffffffffffff1673ffffffffffffffffffffffffffffffffffffffff166323b872dd303384600201546040518463ffffffff1660e01b815260040161062093929190611088565b600060405180830381600087803b15801561063a57600080fd5b505af115801561064e573d6000803e3d6000fd5b505050503373ffffffffffffffffffffffffffffffffffffffff168160040160009054906101000a900473ffffffffffffffffffffffffffffffffffffffff1673ffffffffffffffffffffffffffffffffffffffff167f8b4c9c8a607d67b321582dd8461041b1dc2ceeca70c8b7f37f8e02095cf2e76d83600001548460010160009054906101000a900473ffffffffffffffffffffffffffffffffffffffff168560020154866003015460405161070994939291906110bf565b60405180910390a3505061071b610a1b565b50565b6107266109cc565b60008211610769576040517f08c379a000000000000000000000000000000000000000000000000000000000815260040161076090611150565b60405180910390fd5b6001600081548092919061077c90611170565b91905055508373ffffffffffffffffffffffffffffffffffffffff166323b872dd3330866040518463ffffffff1660e01b81526004016107be93929190611088565b600060405180830381600087803b1580156107d857600080fd5b505af11580156107ec573d6000803e3d6000fd5b505050506040518060e0016040528060015481526020018573ffffffffffffffffffffffffffffffffffffffff1681526020018481526020018381526020013373ffffffffffffffffffffffffffffffffffffffff168152602001600015158152602001828152506002600060015481526020019081526020016000206000820151816000015560208201518160010160006101000a81548173ffffffffffffffffffffffffffffffffffffffff021916908373ffffffffffffffffffffffffffffffffffffffff160217905550604082015181600201556060820151816003015560808201518160040160006101000a81548173ffffffffffffffffffffffffffffffffffffffff021916908373ffffffffffffffffffffffffffffffffffffffff16021790555060a08201518160040160146101000a81548160ff02191690831515021790555060c082015181600501908161094a919061135a565b509050507fd475ed778cb25766467f5f25ccea88d651188c790a7c58507a50dcfaa7ed9db260015485858533600060405161098a9695949392919061144d565b60405180910390a161099a610a1b565b50505050565b600081836109ae91906114ae565b905092915050565b600081836109c4919061151f565b905092915050565b600260005403610a11576040517f08c379a0000000000000000000000000000000000000000000000000000000008152600401610a089061159c565b60405180910390fd5b6002600081905550565b6001600081905550565b600073ffffffffffffffffffffffffffffffffffffffff82169050919050565b6000610a5082610a25565b9050919050565b610a6081610a45565b82525050565b6000602082019050610a7b6000830184610a57565b92915050565b6000819050919050565b610a9481610a81565b82525050565b6000602082019050610aaf6000830184610a8b565b92915050565b6000604051905090565b600080fd5b600080fd5b610ad281610a81565b8114610add57600080fd5b50565b600081359050610aef81610ac9565b92915050565b600060208284031215610b0b57610b0a610abf565b5b6000610b1984828501610ae0565b91505092915050565b6000819050919050565b6000610b47610b42610b3d84610a25565b610b22565b610a25565b9050919050565b6000610b5982610b2c565b9050919050565b6000610b6b82610b4e565b9050919050565b610b7b81610b60565b82525050565b60008115159050919050565b610b9681610b81565b82525050565b600081519050919050565b600082825260208201905092915050565b60005b83811015610bd6578082015181840152602081019050610bbb565b60008484015250505050565b6000601f19601f8301169050919050565b6000610bfe82610b9c565b610c088185610ba7565b9350610c18818560208601610bb8565b610c2181610be2565b840191505092915050565b600060e082019050610c41600083018a610a8b565b610c4e6020830189610b72565b610c5b6040830188610a8b565b610c686060830187610a8b565b610c756080830186610a57565b610c8260a0830185610b8d565b81810360c0830152610c948184610bf3565b905098975050505050505050565b6000610cad82610a25565b9050919050565b6000610cbf82610ca2565b9050919050565b610ccf81610cb4565b8114610cda57600080fd5b50565b600081359050610cec81610cc6565b92915050565b600080fd5b600080fd5b7f4e487b7100000000000000000000000000000000000000000000000000000000600052604160045260246000fd5b610d3482610be2565b810181811067ffffffffffffffff82111715610d5357610d52610cfc565b5b80604052505050565b6000610d66610ab5565b9050610d728282610d2b565b919050565b600067ffffffffffffffff821115610d9257610d91610cfc565b5b610d9b82610be2565b9050602081019050919050565b82818337600083830152505050565b6000610dca610dc584610d77565b610d5c565b905082815260208101848484011115610de657610de5610cf7565b5b610df1848285610da8565b509392505050565b600082601f830112610e0e57610e0d610cf2565b5b8135610e1e848260208601610db7565b91505092915050565b60008060008060808587031215610e4157610e40610abf565b5b6000610e4f87828801610cdd565b9450506020610e6087828801610ae0565b9350506040610e7187828801610ae0565b925050606085013567ffffffffffffffff811115610e9257610e91610ac4565b5b610e9e87828801610df9565b91505092959194509250565b7f4e487b7100000000000000000000000000000000000000000000000000000000600052602260045260246000fd5b60006002820490506001821680610ef157607f821691505b602082108103610f0457610f03610eaa565b5b50919050565b7f4e487b7100000000000000000000000000000000000000000000000000000000600052601160045260246000fd5b6000610f4482610a81565b9150610f4f83610a81565b9250828201905080821115610f6757610f66610f0a565b5b92915050565b7f4e465420646f6573277420657869737400000000000000000000000000000000600082015250565b6000610fa3601083610ba7565b9150610fae82610f6d565b602082019050919050565b60006020820190508181036000830152610fd281610f96565b9050919050565b7f4e465420416c726561647920536f6c6400000000000000000000000000000000600082015250565b600061100f601083610ba7565b915061101a82610fd9565b602082019050919050565b6000602082019050818103600083015261103e81611002565b9050919050565b600061105082610a81565b915061105b83610a81565b925082820390508181111561107357611072610f0a565b5b92915050565b61108281610ca2565b82525050565b600060608201905061109d6000830186611079565b6110aa6020830185611079565b6110b76040830184610a8b565b949350505050565b60006080820190506110d46000830187610a8b565b6110e16020830186610b72565b6110ee6040830185610a8b565b6110fb6060830184610a8b565b95945050505050565b7f5072696365206d75737420626565206d6f7265207468656e2030000000000000600082015250565b600061113a601a83610ba7565b915061114582611104565b602082019050919050565b600060208201905081810360008301526111698161112d565b9050919050565b600061117b82610a81565b91507fffffffffffffffffffffffffffffffffffffffffffffffffffffffffffffffff82036111ad576111ac610f0a565b5b600182019050919050565b60008190508160005260206000209050919050565b60006020601f8301049050919050565b600082821b905092915050565b60006008830261121a7fffffffffffffffffffffffffffffffffffffffffffffffffffffffffffffffff826111dd565b61122486836111dd565b95508019841693508086168417925050509392505050565b600061125761125261124d84610a81565b610b22565b610a81565b9050919050565b6000819050919050565b6112718361123c565b61128561127d8261125e565b8484546111ea565b825550505050565b600090565b61129a61128d565b6112a5818484611268565b505050565b5b818110156112c9576112be600082611292565b6001810190506112ab565b5050565b601f82111561130e576112df816111b8565b6112e8846111cd565b810160208510156112f7578190505b61130b611303856111cd565b8301826112aa565b50505b505050565b600082821c905092915050565b600061133160001984600802611313565b1980831691505092915050565b600061134a8383611320565b9150826002028217905092915050565b61136382610b9c565b67ffffffffffffffff81111561137c5761137b610cfc565b5b6113868254610ed9565b6113918282856112cd565b600060209050601f8311600181146113c457600084156113b2578287015190505b6113bc858261133e565b865550611424565b601f1984166113d2866111b8565b60005b828110156113fa578489015182556001820191506020850194506020810190506113d5565b868310156114175784890151611413601f891682611320565b8355505b6001600288020188555050505b505050505050565b600061143782610b4e565b9050919050565b6114478161142c565b82525050565b600060c0820190506114626000830189610a8b565b61146f602083018861143e565b61147c6040830187610a8b565b6114896060830186610a8b565b6114966080830185610a57565b6114a360a0830184610b8d565b979650505050505050565b60006114b982610a81565b91506114c483610a81565b92508282026114d281610a81565b915082820484148315176114e9576114e8610f0a565b5b5092915050565b7f4e487b7100000000000000000000000000000000000000000000000000000000600052601260045260246000fd5b600061152a82610a81565b915061153583610a81565b925082611545576115446114f0565b5b828204905092915050565b7f5265656e7472616e637947756172643a207265656e7472616e742063616c6c00600082015250565b6000611586601f83610ba7565b915061159182611550565b602082019050919050565b600060208201905081810360008301526115b581611579565b905091905056fea26469706673582212203cb4503ac7795609ef34e41459ac54a43951201555be65500e98ca416031183c64736f6c63430008110033",
  "linkReferences": {},
  "deployedLinkReferences": {}
}