{
  "_format": "hh-sol-artifact-1",
  "contractName": "Market",
  "sourceName": "contracts/Market.sol",
  "abi": [
    {
      "inputs": [
        {
          "internalType": "uint256",
          "name": "_feePercent",
          "type": "uint256"
        }
      ],
      "stateMutability": "nonpayable",
      "type": "constructor"
    },
    {
      "anonymous": false,
      "inputs": [
        {
          "indexed": false,
          "internalType": "uint256",
          "name": "id",
          "type": "uint256"
        },
        {
          "indexed": false,
          "internalType": "contract IERC721",
          "name": "nft",
          "type": "address"
        },
        {
          "indexed": false,
          "internalType": "uint256",
          "name": "tokenID",
          "type": "uint256"
        },
        {
          "indexed": false,
          "internalType": "uint256",
          "name": "price",
          "type": "uint256"
        },
        {
          "indexed": true,
          "internalType": "address",
          "name": "seller",
          "type": "address"
        },
        {
          "indexed": true,
          "internalType": "address",
          "name": "buyer",
          "type": "address"
        }
      ],
      "name": "Bought",
      "type": "event"
    },
    {
      "anonymous": false,
      "inputs": [
        {
          "indexed": false,
          "internalType": "uint256",
          "name": "id",
          "type": "uint256"
        },
        {
          "indexed": false,
          "internalType": "contract IERC721",
          "name": "nft",
          "type": "address"
        },
        {
          "indexed": false,
          "internalType": "uint256",
          "name": "tokenID",
          "type": "uint256"
        },
        {
          "indexed": false,
          "internalType": "uint256",
          "name": "price",
          "type": "uint256"
        },
        {
          "indexed": false,
          "internalType": "address payable",
          "name": "seller",
          "type": "address"
        },
        {
          "indexed": false,
          "internalType": "bool",
          "name": "sold",
          "type": "bool"
        }
      ],
      "name": "Offered",
      "type": "event"
    },
    {
      "inputs": [],
      "name": "feeAccount",
      "outputs": [
        {
          "internalType": "address payable",
          "name": "",
          "type": "address"
        }
      ],
      "stateMutability": "view",
      "type": "function"
    },
    {
      "inputs": [],
      "name": "feePercent",
      "outputs": [
        {
          "internalType": "uint256",
          "name": "",
          "type": "uint256"
        }
      ],
      "stateMutability": "view",
      "type": "function"
    },
    {
      "inputs": [
        {
          "internalType": "uint256",
          "name": "_id",
          "type": "uint256"
        }
      ],
      "name": "getTotalPrice",
      "outputs": [
        {
          "internalType": "uint256",
          "name": "",
          "type": "uint256"
        }
      ],
      "stateMutability": "view",
      "type": "function"
    },
    {
      "inputs": [],
      "name": "itemCount",
      "outputs": [
        {
          "internalType": "uint256",
          "name": "",
          "type": "uint256"
        }
      ],
      "stateMutability": "view",
      "type": "function"
    },
    {
      "inputs": [
        {
          "internalType": "uint256",
          "name": "",
          "type": "uint256"
        }
      ],
      "name": "items",
      "outputs": [
        {
          "internalType": "uint256",
          "name": "id",
          "type": "uint256"
        },
        {
          "internalType": "contract IERC721",
          "name": "nft",
          "type": "address"
        },
        {
          "internalType": "uint256",
          "name": "tokenID",
          "type": "uint256"
        },
        {
          "internalType": "uint256",
          "name": "price",
          "type": "uint256"
        },
        {
          "internalType": "address payable",
          "name": "seller",
          "type": "address"
        },
        {
          "internalType": "bool",
          "name": "sold",
          "type": "bool"
        }
      ],
      "stateMutability": "view",
      "type": "function"
    },
    {
      "inputs": [
        {
          "internalType": "contract ERC721",
          "name": "_nft",
          "type": "address"
        },
        {
          "internalType": "uint256",
          "name": "tokenID",
          "type": "uint256"
        },
        {
          "internalType": "uint256",
          "name": "price",
          "type": "uint256"
        }
      ],
      "name": "makeItem",
      "outputs": [],
      "stateMutability": "nonpayable",
      "type": "function"
    },
    {
      "inputs": [
        {
          "internalType": "uint256",
          "name": "_id",
          "type": "uint256"
        }
      ],
      "name": "purchaseItem",
      "outputs": [],
      "stateMutability": "payable",
      "type": "function"
    }
  ],
  "bytecode": "0x60c060405234801561001057600080fd5b506040516200118438038062001184833981810160405281019061003491906100b9565b60016000819055503373ffffffffffffffffffffffffffffffffffffffff1660808173ffffffffffffffffffffffffffffffffffffffff16815250508060a08181525050506100e6565b600080fd5b6000819050919050565b61009681610083565b81146100a157600080fd5b50565b6000815190506100b38161008d565b92915050565b6000602082840312156100cf576100ce61007e565b5b60006100dd848285016100a4565b91505092915050565b60805160a05161106a6200011a600039600081816101e6015261029e0152600081816101bc0152610458015261106a6000f3fe6080604052600436106100705760003560e01c8063bfb231d21161004e578063bfb231d2146100f6578063ca7dd37514610138578063d38ea5bf14610175578063fa00afc71461019157610070565b806365e17c9d146100755780636bfb0d01146100a05780637fd6f15c146100cb575b600080fd5b34801561008157600080fd5b5061008a6101ba565b60405161009791906109ba565b60405180910390f35b3480156100ac57600080fd5b506100b56101de565b6040516100c291906109ee565b60405180910390f35b3480156100d757600080fd5b506100e06101e4565b6040516100ed91906109ee565b60405180910390f35b34801561010257600080fd5b5061011d60048036038101906101189190610a3a565b610208565b60405161012f96959493929190610ae1565b60405180910390f35b34801561014457600080fd5b5061015f600480360381019061015a9190610a3a565b610291565b60405161016c91906109ee565b60405180910390f35b61018f600480360381019061018a9190610a3a565b610318565b005b34801561019d57600080fd5b506101b860048036038101906101b39190610b92565b61068f565b005b7f000000000000000000000000000000000000000000000000000000000000000081565b60015481565b7f000000000000000000000000000000000000000000000000000000000000000081565b60026020528060005260406000206000915090508060000154908060010160009054906101000a900473ffffffffffffffffffffffffffffffffffffffff16908060020154908060030154908060040160009054906101000a900473ffffffffffffffffffffffffffffffffffffffff16908060040160149054906101000a900460ff16905086565b60006102f06127106102e27f000000000000000000000000000000000000000000000000000000000000000060026000878152602001908152602001600020600301546108f490919063ffffffff16565b61090a90919063ffffffff16565b60026000848152602001908152602001600020600301546103119190610c14565b9050919050565b610320610920565b600061032b82610291565b9050600060026000848152602001908152602001600020905060008311801561035657506001548311155b610395576040517f08c379a000000000000000000000000000000000000000000000000000000000815260040161038c90610ca5565b60405180910390fd5b8060040160149054906101000a900460ff16156103e7576040517f08c379a00000000000000000000000000000000000000000000000000000000081526004016103de90610d11565b60405180910390fd5b8060040160009054906101000a900473ffffffffffffffffffffffffffffffffffffffff1673ffffffffffffffffffffffffffffffffffffffff166108fc82600301549081150290604051600060405180830381858888f19350505050158015610455573d6000803e3d6000fd5b507f000000000000000000000000000000000000000000000000000000000000000073ffffffffffffffffffffffffffffffffffffffff166108fc8260030154846104a09190610d31565b9081150290604051600060405180830381858888f193505050501580156104cb573d6000803e3d6000fd5b5060018160040160146101000a81548160ff021916908315150217905550338160040160006101000a81548173ffffffffffffffffffffffffffffffffffffffff021916908373ffffffffffffffffffffffffffffffffffffffff1602179055508060010160009054906101000a900473ffffffffffffffffffffffffffffffffffffffff1673ffffffffffffffffffffffffffffffffffffffff166323b872dd303384600201546040518463ffffffff1660e01b815260040161059193929190610d74565b600060405180830381600087803b1580156105ab57600080fd5b505af11580156105bf573d6000803e3d6000fd5b505050503373ffffffffffffffffffffffffffffffffffffffff168160040160009054906101000a900473ffffffffffffffffffffffffffffffffffffffff1673ffffffffffffffffffffffffffffffffffffffff167f8b4c9c8a607d67b321582dd8461041b1dc2ceeca70c8b7f37f8e02095cf2e76d83600001548460010160009054906101000a900473ffffffffffffffffffffffffffffffffffffffff168560020154866003015460405161067a9493929190610dab565b60405180910390a3505061068c61096f565b50565b610697610920565b600081116106da576040517f08c379a00000000000000000000000000000000000000000000000000000000081526004016106d190610e3c565b60405180910390fd5b600160008154809291906106ed90610e5c565b91905055508273ffffffffffffffffffffffffffffffffffffffff166323b872dd3330856040518463ffffffff1660e01b815260040161072f93929190610d74565b600060405180830381600087803b15801561074957600080fd5b505af115801561075d573d6000803e3d6000fd5b505050506040518060c0016040528060015481526020018473ffffffffffffffffffffffffffffffffffffffff1681526020018381526020018281526020013373ffffffffffffffffffffffffffffffffffffffff168152602001600015158152506002600060015481526020019081526020016000206000820151816000015560208201518160010160006101000a81548173ffffffffffffffffffffffffffffffffffffffff021916908373ffffffffffffffffffffffffffffffffffffffff160217905550604082015181600201556060820151816003015560808201518160040160006101000a81548173ffffffffffffffffffffffffffffffffffffffff021916908373ffffffffffffffffffffffffffffffffffffffff16021790555060a08201518160040160146101000a81548160ff0219169083151502179055509050507fd475ed778cb25766467f5f25ccea88d651188c790a7c58507a50dcfaa7ed9db26001548484843360006040516108df96959493929190610ec5565b60405180910390a16108ef61096f565b505050565b600081836109029190610f26565b905092915050565b600081836109189190610f97565b905092915050565b600260005403610965576040517f08c379a000000000000000000000000000000000000000000000000000000000815260040161095c90611014565b60405180910390fd5b6002600081905550565b6001600081905550565b600073ffffffffffffffffffffffffffffffffffffffff82169050919050565b60006109a482610979565b9050919050565b6109b481610999565b82525050565b60006020820190506109cf60008301846109ab565b92915050565b6000819050919050565b6109e8816109d5565b82525050565b6000602082019050610a0360008301846109df565b92915050565b600080fd5b610a17816109d5565b8114610a2257600080fd5b50565b600081359050610a3481610a0e565b92915050565b600060208284031215610a5057610a4f610a09565b5b6000610a5e84828501610a25565b91505092915050565b6000819050919050565b6000610a8c610a87610a8284610979565b610a67565b610979565b9050919050565b6000610a9e82610a71565b9050919050565b6000610ab082610a93565b9050919050565b610ac081610aa5565b82525050565b60008115159050919050565b610adb81610ac6565b82525050565b600060c082019050610af660008301896109df565b610b036020830188610ab7565b610b1060408301876109df565b610b1d60608301866109df565b610b2a60808301856109ab565b610b3760a0830184610ad2565b979650505050505050565b6000610b4d82610979565b9050919050565b6000610b5f82610b42565b9050919050565b610b6f81610b54565b8114610b7a57600080fd5b50565b600081359050610b8c81610b66565b92915050565b600080600060608486031215610bab57610baa610a09565b5b6000610bb986828701610b7d565b9350506020610bca86828701610a25565b9250506040610bdb86828701610a25565b9150509250925092565b7f4e487b7100000000000000000000000000000000000000000000000000000000600052601160045260246000fd5b6000610c1f826109d5565b9150610c2a836109d5565b9250828201905080821115610c4257610c41610be5565b5b92915050565b600082825260208201905092915050565b7f4e465420646f6573277420657869737400000000000000000000000000000000600082015250565b6000610c8f601083610c48565b9150610c9a82610c59565b602082019050919050565b60006020820190508181036000830152610cbe81610c82565b9050919050565b7f4e465420416c726561647920536f6c6400000000000000000000000000000000600082015250565b6000610cfb601083610c48565b9150610d0682610cc5565b602082019050919050565b60006020820190508181036000830152610d2a81610cee565b9050919050565b6000610d3c826109d5565b9150610d47836109d5565b9250828203905081811115610d5f57610d5e610be5565b5b92915050565b610d6e81610b42565b82525050565b6000606082019050610d896000830186610d65565b610d966020830185610d65565b610da360408301846109df565b949350505050565b6000608082019050610dc060008301876109df565b610dcd6020830186610ab7565b610dda60408301856109df565b610de760608301846109df565b95945050505050565b7f5072696365206d75737420626565206d6f7265207468656e2030000000000000600082015250565b6000610e26601a83610c48565b9150610e3182610df0565b602082019050919050565b60006020820190508181036000830152610e5581610e19565b9050919050565b6000610e67826109d5565b91507fffffffffffffffffffffffffffffffffffffffffffffffffffffffffffffffff8203610e9957610e98610be5565b5b600182019050919050565b6000610eaf82610a93565b9050919050565b610ebf81610ea4565b82525050565b600060c082019050610eda60008301896109df565b610ee76020830188610eb6565b610ef460408301876109df565b610f0160608301866109df565b610f0e60808301856109ab565b610f1b60a0830184610ad2565b979650505050505050565b6000610f31826109d5565b9150610f3c836109d5565b9250828202610f4a816109d5565b91508282048414831517610f6157610f60610be5565b5b5092915050565b7f4e487b7100000000000000000000000000000000000000000000000000000000600052601260045260246000fd5b6000610fa2826109d5565b9150610fad836109d5565b925082610fbd57610fbc610f68565b5b828204905092915050565b7f5265656e7472616e637947756172643a207265656e7472616e742063616c6c00600082015250565b6000610ffe601f83610c48565b915061100982610fc8565b602082019050919050565b6000602082019050818103600083015261102d81610ff1565b905091905056fea26469706673582212205d79dcabf2bdaae4f7d248142bb57ab53f57a58a078f2fe4c7ffcc6997c9bb5c64736f6c63430008110033",
  "linkReferences": {},
  "deployedLinkReferences": {}
}